:020000040800F2
:1000000038F80120C1020008572B00084F2B0008C8
:10001000532B0008C90A0008E13000080000000066
:100020000000000000000000000000005B2B000842
:10003000CD0A000800000000592B00085D2B0008C5
:10004000E5020008E5020008E5020008E5020008F4
:10005000E5020008E5020008E5020008E5020008E4
:10006000E5020008E5020008E5020008E5020008D4
:10007000E5020008E5020008E5020008E5020008C4
:10008000E5020008E5020008E5020008E5020008B4
:10009000E5020008E5020008E5020008E5020008A4
:1000A000E5020008E5020008E5020008E502000894
:1000B000E5020008E5020008792B0008E5020008C7
:1000C000E5020008E5020008E5020008E502000874
:1000D000E502000891300008E5020008E50200088A
:1000E000E5020008E5020008E5020008E502000854
:1000F000E5020008E5020008E5020008E502000844
:10010000E5020008E5020008E5020008E502000833
:10011000E5020008E5020008E5020008E502000823
:10012000E5020008E5020008E5020008E502000813
:10013000E50200085D0B0008E5020008E502000882
:10014000E5020008E5020008E5020008E5020008F3
:10015000E5020008E5020008E5020008E5020008E3
:10016000E5020008E5020008E5020008E5020008D3
:10017000E5020008E5020008E502000800000000B2
:10018000E5020008E502000800F002F800F06FF850
:100190000AA090E8000C82448344AAF10107DA45E2
:1001A00001D100F064F8AFF2090EBAE80F0013F0C5
:1001B000010F18BFFB1A43F001031847703D0100FF
:1001C000903D01000A444FF0000C10F8013B13F081
:1001D000070408BF10F8014B1D1108BF10F8015BA0
:1001E000641E05D010F8016B641E01F8016BF9D193
:1001F00013F0080F1EBF10F8014BAD1C0C1B09D1EA
:100200006D1E58BF01F801CBFAD505E014F8016B5B
:1002100001F8016B6D1EF9D59142D6D370470000ED
:100220000023002400250026103A28BF78C1FBD8FF
:10023000520728BF30C148BF0B607047642900F0E7
:100240003981752900F03681782900F06F816329A2
:1002500000F09B83732900F0A083002070471FB536
:1002600013F046FC00F067FA1FBD10B510BD00F09A
:10027000FDFB1146FFF7F3FF0AF0E4FB00F01BFC67
:1002800003B4FFF7F2FF03BC02F04FFF0B49D1F8B4
:1002900000C04A685CF8043B1068184442F8040B3C
:1002A0008C4528BFA1F1DC0C8A4228BFA1F1DC02F9
:1002B000C1F800C04A6020F000407047CCF3012034
:1002C0000C48016841F4700101600B4880470B48FD
:1002D0000047FEE7FEE7FEE7FEE7FEE7FEE7FEE794
:1002E000FEE7FEE7FEE7000005480649044A064B24
:1002F0007047000088ED00E0652B000889010008C8
:1003000038F4012038F8012038F40120704753EA0E
:10031000020C00F069802DE9F04B4FF00006002B35
:100320001FBFB3FA83F503FA05F424FA05F65E401D
:1003300012BF1643B2FA82F502FA05F4C5F12005A0
:100340001EBF22FA05FC44EA0C04203556EA044C90
:100350004FEA144418BF641C4FF000084FF0000926
:10036000904271EB030C39D3002919BFB1FA81F720
:1003700001FA07F6B0FA80F700FA07F6C7F120078E
:100380001EBF20FA07FC46EA0C062037B6FBF4FC39
:10039000A7EB0507103F07F01F0BCBF120060CFA67
:1003A0000BFB2CFA06F644BFB3460026202FA4BF51
:1003B0005E464FF0000B5BEA060C08BF4FF0010BE6
:1003C00019EB0B09ABFB027C48EB0608C01B06FBD4
:1003D00002CC0BFB03CC71EB0C01C1E70B460246D0
:1003E00041464846BDE8F08B13B54FF000004FF092
:1003F0000001AFF30080BDE81C4070470FB4044912
:1004000010B503AA029800F0CDFA10BC5DF814FBF9
:100410000800002070B5044685690068C10601D552
:10042000302600E02026C00707D070BDD4E90121A6
:1004300030469047206A401C20626D1EF6D570BD84
:1004400070B5044685690078C00707D170BDD4E94E
:10045000012120209047206A401C20626D1EF6D5A5
:1004600070BD70B50C460546012A05D02878800677
:1004700000D5EA69002302E0012305E05B1C9342FA
:1004800002D2E05C0028F9D1A869E618C01AA86178
:10049000286A184428622846FFF7BCFF04E0D5E923
:1004A000012114F8010B9047B442F8D32846FFF716
:1004B000C7FF70BD2DE9F04106460024106875297C
:1004C000314616A510D0AFF30080002802DA404272
:1004D00013A507E031688A0701D512A502E0490794
:1004E00004D511A5012401E0AFF3008000210A2208
:1004F00006F1240709E0B0FBF2FCB0FBF2F302FBCB
:100500001C00303078541846491C0028F3D123468B
:100510002A463046BDE8F04100F0D4B900000000A2
:100520002D0000002B0000002000000070B50446E4
:100530000D4621461068AFF300802188090502D5D9
:100540000F4A7A4402E00E4A7A440E32002104F146
:10055000240305E000F00F060009965D5E54491C77
:100560000028F7D120780023000704D5702D02D091
:1005700009B1022311322046BDE8704000F0A2B953
:10058000063701002DE9F05F894604464FF0000A66
:10059000DFF874B1FB44C0F820A02046E16888472A
:1005A000002874D0252806D0D4E901219047206A7C
:1005B000401C2062F1E700265F462046E16888473C
:1005C0002028054607DB312D05D2781910F8200CBC
:1005D00008B10643F1E7B00701D526F00406C4F8D8
:1005E0001CA00027C4F818A02A2D09D0284602F024
:1005F00095FD38B304EB8708303DC8F8185019E072
:1006000059F8041B204604EB87029161E168884792
:10061000012F054618D1E069002820DA26F02006CF
:100620001DE0D8F8180000EB800005EB40003038E2
:10063000C8F818002046E1688847054602F06EFDBC
:100640000028EED1012F0AD02E2D08D12046E168D6
:1006500088477F1C0546022F46F02006C4DBA069B0
:10066000002803DA404246F00106A061F00701D0FD
:1006700026F010066C2D0BD0682D09D04C2D39D0EA
:100680006A2D35D0742D35D07A2D33D016E038E070
:10069000E1682F4620468847B842054609D16C2FAD
:1006A00026D04FF48060E16806432046884705461F
:1006B00004E06C2F1AD04FF4807006430DB3A5F1FF
:1006C0004100192802D8203546F400664A462946DA
:1006D000204626604E46FFF7B1FD80B101280BD0C1
:1006E000F61D26F0070000F1080956E74020E4E770
:1006F0008020D8E70020D6E706F104094DE7284618
:1007000052E7206ABDE8F09FDC3601000B4910B5C6
:10071000A1F17C020A4CC2E93712372106E000EB56
:10072000104342F82130074B00FB03400B1EA1F1A0
:100730000101F4DC10BD0120E8E700006CF30120AA
:10074000E119D666CD0D010040EA010310B59B0703
:100750000FD1042A0DD310C808C9121F9C42F8D02B
:1007600020BA19BA884201D9012010BD4FF0FF30DC
:1007700010BD1AB1D30703D0521C07E0002010BDF2
:1007800010F8013B11F8014B1B1B07D110F8013B7E
:1007900011F8014B1B1B01D1921EF1D1184610BD5F
:1007A000032A40F2308010F0030C00F0158011F89D
:1007B000013BBCF1020F624498BF11F801CB00F875
:1007C000013B38BF11F8013BA2F1040298BF00F8C9
:1007D00001CB38BF00F8013B11F0030300F0F480B7
:1007E000083AC0F0088051F8043B083A51F804CBAD
:1007F000A0E80810F5E7121D5CBF51F8043B40F873
:10080000043BAFF30080D20724BF11F8013B11F87D
:1008100001CB48BF11F8012B24BF00F8013B00F8C1
:1008200001CB48BF00F8012B70474FF000020429AC
:10083000C0F0128010F0030C00F01B80CCF1040C0F
:10084000BCF1020F18BF00F8012BA8BF20F8022B43
:10085000A1EB0C0100F00DB85FEAC17C24BF00F8E9
:10086000012B00F8012B48BF00F8012B70474FF017
:10087000000200B5134694469646203922BFA0E8F0
:100880000C50A0E80C50B1F12001BFF4F7AF0907FC
:1008900028BFA0E80C5048BF0CC05DF804EB8900ED
:1008A00028BF40F8042B08BF704748BF20F8022B30
:1008B00011F0804F18BF00F8012B70477047704748
:1008C000704770472DE9F0470D4699469246044619
:1008D00000F124080168880604D5E06921F01001C0
:1008E000216000E00120A84201DD471B00E0002755
:1008F000A1697A1902EB0900081AA0612078C006E4
:1009000002D42046FFF786FD002608E0D4E9012145
:100910001AF806009047206A401C761C20624E455B
:10092000F4DB2078C0060AD52046FFF773FD06E009
:10093000D4E9012130209047206A401C2062381EF3
:10094000A7F10107F4DC07E0D4E9012118F805005C
:100950009047206A401C2062281EA5F10105F3DCA7
:100960002046FFF76DFD2078000602D50220BDE885
:10097000F0870120FBE710B5436913B1AFF30080A6
:1009800001E0FFF76EFD012010BD127800F1240197
:100990000A7000224A700122EDE711684FF0FF3221
:1009A000E9E70000074B70B50D467B4400F047F8BF
:1009B0000446284600F056F810B14FF0FF3070BDE5
:1009C000204670BD6752000010B5203AC0F00B8081
:1009D000B1E81850203AA0E81850B1E81850A0E843
:1009E0001850BFF4F5AF5FEA027C24BFB1E818509D
:1009F000A0E8185044BF18C918C0BDE810405FEA0D
:100A0000827C24BF51F8043B40F8043B08BF704788
:100A1000D20728BF31F8023B48BF11F8012B28BF8D
:100A200020F8023B48BF00F8012B70470048704790
:100A3000D4F3012001694A1C02610878704700B5AF
:100A40008FB0CDE901310021059105497944CDE907
:100A5000031011466846FFF795FD0FB000BD00007A
:100A6000E5FFFFFF007B00F0800070477546FFF751
:100A7000DDFFAE4605006946534620F00700854677
:100A800018B020B5FFF730FCBDE820404FF000065D
:100A90004FF000074FF000084FF0000B21F0070166
:100AA000AC46ACE8C009ACE8C009ACE8C009ACE8A9
:100AB000C0098D46704710B50446AFF3008020464C
:100AC000BDE81040FFF7DCBB00BFFEE770470168E0
:100AD00001F58051896941F00202016801F58051F8
:100AE0008A617047016801F58051896941F40052BB
:100AF000016801F580518A617047000008B5084916
:100B00000968C9084FF47A72B1FBF2F141430091D0
:100B100000BF00BF00994A1E00920029F9D108BD0C
:100B20000000002038B5044600200090206800F541
:100B30008050806940F48011206800F58050816108
:100B4000206800F58050806900900120FFF7D6FFF3
:100B50000099206800F58050816138BD10B501E032
:100B600009F038FF0949886A04F08CFE0028F7D1A3
:100B70004FF480310548006800F580504161402104
:100B80000248006800F58050416110BDB8030020A4
:100B900030B503461479557944EA0520084C0C44D5
:100BA0002064D4782406957844EA0544557844EACC
:100BB0000524157844EA0500014C0C44606430BDFE
:100BC0000080024070B5AEB004460E46002526B146
:100BD0004FF40061E160C900A16000201190129003
:100BE0001390149015901690E06918B94FF4806036
:100BF000179001E0002017904FF40070189000202B
:100C000019901A901B901C901D9040201E9000205F
:100C10001F90209021902290239024902590269040
:100C2000802027900020289029902A902B902C90AB
:100C30002D902068056871480540DDE911010843E1
:100C40001399084314990843A16808431599084368
:100C500016990843E168084317990843189908430F
:100C6000199908431A9908431B99084305432068BA
:100C7000056020680568012000F0CBF92068056058
:100C8000DDE91C0108431E9908431F990843209978
:100C9000084321990843229908432399084321686E
:100CA000486020684568012000F0B3F9206845607D
:100CB00024982168886025982168C8602068856923
:100CC0004FF641700540DDE9261040EA01402899C1
:100CD0000843299908432A9908432B990843054357
:100CE0002068856120688569012000F092F92068FC
:100CF0008561DDE92C0108432168C8612068C56968
:100D0000012000F086F92068C561002001904FF0B5
:100D100000700290002003904FF400100490002017
:100D2000059006900790089004200990C0050A904D
:100D300040120B9080010C9040120D9080200E907C
:100D400000200F901090206800F5805085692C4895
:100D50000540DDE90101084303990843049908436C
:100D600005990843069908430799084308990843D9
:100D7000099908430543206800F580508561206883
:100D800000F580508569012000F043F9206800F5E6
:100D900080508561DDE90A0108430C9908430D99EB
:100DA00008430E9908430F9940EA810010990843BF
:100DB00040F40001206800F580500160206800F5D3
:100DC00080500568012000F024F9206800F580506B
:100DD0000560A069012809D1206800F58050C0692C
:100DE00008490843216801F58051C8610021204667
:100DF0006269FFF7CDFE2EB070BD00000F8120FFAD
:100E0000233FDEF84000010038B504460020009082
:100E10002068006840F004002168086020680068CD
:100E200000900120FFF76AFE00982168086038BD35
:100E300038B50446002000902068006840F00800A3
:100E4000216808602068006800900120FFF756FEC6
:100E500000982168086038BD70B504461D4600231F
:100E6000B5F5804F13D154F822300C480340D1E936
:100E7000000640EA06108E6840EA06208E8940EAA5
:100E800006408E693043034344F8223003E06FF09C
:100E9000704044F82200002070BD00000000F0CF38
:100EA00010B503460022086853F82020124802407B
:100EB000D1E901042043CC6820430C6920434C69EC
:100EC00020438C692043CC6920430C6A20434C6A40
:100ED00020438C6A2043CC6A2043CC6B20430C6BAC
:100EE000204302438868082801D142F04002086884
:100EF00043F82020002010BD8000F0FF30B50346ED
:100F00000024501C53F8204004F04044D1E900056F
:100F100040EA05108D6840EA05208D8940EA0545C4
:100F2000088A401E45EA0055087D801E45EA00609B
:100F30008D6928430443501C43F82040002030BDF5
:100F400070B50446A56D00F053FE064694F83500D2
:100F5000022808D08020606500BF002084F834009B
:100F600000BF012070BD2068006820F016002168D5
:100F700008602068406920F0800021684861206C8A
:100F800008B9A06C28B12068006820F0080021682A
:100F900008602068006820F00100216808600FE008
:100FA00000F026FE801B05280AD92020606500BFBE
:100FB000002084F8340000BF032084F83500D1E716
:100FC0002068006800F001000028E9D194F85C1066
:100FD0003F208840A86000BF002084F8340000BF94
:100FE000012084F835000020BCE7014691F8350067
:100FF000022803D08020486501207047052081F831
:1010000035000868006820F001000A6810600020C0
:10101000F3E710B50446A0B202F094F810BD70B525
:1010200004460D461646002200BF94F845000128EC
:1010300001D1022070BD012084F8450000BF0220CC
:1010400084F84400A56200221FE005EB42114FF036
:101050000040086044F2F4504860C2EBC21000EB5C
:10106000400006EB80008860A069012803D1486831
:1010700020F000404860581E904204D905EB421011
:101080002030C86000E0CD60521C9A42DDD3206859
:1010900000F58050C560012084F8440000BF0020A6
:1010A00084F8450000BF00BFC4E770B504460D4694
:1010B0001646002200BF94F84500012801D1022005
:1010C00070BD012084F8450000BF022084F8440070
:1010D000E56200221BE005EB42114FF4801008602E
:1010E000C2EBC21000EB400006EB80008860E069B4
:1010F00018B9086840F440000860581E904204D9AE
:1011000005EB42102030C86000E0CD60521C9A42CE
:10111000E1D3206800F580500561012084F8440087
:1011200000BF002084F8450000BF00BFC8E70146AB
:10113000002200BF91F84500012801D1022070472C
:10114000012081F8450000BF022081F84400886A30
:10115000006800F00040002838D1886A006800F478
:101160008070F0B1886B401C8863886B012801D1C6
:10117000886A08638B6A4B63886A0068C0F30D4015
:10118000021FCA63086B83680B64886AC068886240
:10119000012081F8440000BF002081F8450000BF15
:1011A000CDE7886A006800F4007048B1886A086377
:1011B00000234B6301238B63886AC068886205E063
:1011C000886B401C8863886AC0688862012081F847
:1011D000440000BF002081F8450000BF0120AEE7B9
:1011E0002DE9FC4104460025002001909D4E00277A
:1011F000804614B90120BDE8FC8194F8440028B968
:10120000002084F84500204600F03AF900BF002095
:1012100000909548006840F4804093490860084673
:10122000006800F48040009000BF00BF8F48006855
:1012300020F400008D49086008460068216A0843D0
:101240008A490860206800F58050006840F001017C
:10125000206800F58050016000F0CAFC07460FE0EE
:1012600000F0C6FCC01BB0F5FA7F09D9032084F852
:10127000440000BF002084F8450000BF0320BAE707
:10128000206800F58050006800F001000028E7D1D8
:101290002068056925F01C0500F020FE064674480C
:1012A000864205D37348864202D245F008051AE00B
:1012B0007048864205D36B48864202D245F00C0541
:1012C00011E06848864203D36B48864200D20AE0A8
:1012D0006948864205D36948864202D245F0040532
:1012E00001E045F01005206805614FF4004200213F
:1012F000204600F026FB48B14FF001084146204649
:10130000FFF760FC012084F8440074E7FF20FFF73A
:1013100080FE6068002871D000F06AFC074600BFBC
:1013200001AA0121204600F0FBF900F061FCC01B7E
:1013300041F2883188420FD94FF0010841462046DA
:10134000FFF740FC012084F8440000BF002084F82F
:10135000450000BF03204EE7019800F00400042878
:10136000DED182020021204600F0EBFA48B14FF0B6
:10137000010841462046FFF725FC012084F844007F
:1013800039E700F035FC074600BF01AA01212046DD
:1013900000F0C6F900F02CFCC01B41F288318842F5
:1013A0000FD94FF0010841462046FFF70BFC012002
:1013B00084F8440000BF002084F8450000BF0320EB
:1013C00019E7019800F020002028DED101AA1F2192
:1013D000204600F0A5F948B14FF0010841462046EB
:1013E000FFF7F0FB012084F8440004E7019800F0C7
:1013F000080020B14FF40061E16002E00DE000213F
:10140000E160019800F01100112802D10021A160D3
:101410001EE04FF48041A1601AE0E068C0F3CF0005
:10142000A168C1F34F0140EA01020021204600F00B
:1014300088FA48B14FF0010841462046FFF7C2FB49
:10144000012084F84400D6E640F6FF70FFF7E1FD86
:1014500041462046FFF7B6FB012084F844000020F7
:10146000C9E6000000879303443802400438014075
:10147000002D3101C00E160200E1F50580D1F00803
:1014800010B586B0044600BF00BF002000909F4802
:10149000006840F001009D4908600846006800F0BF
:1014A0000100009000BF00BF00BF00BF00BF0020D0
:1014B00000900846006840F0010008600846006897
:1014C00000F00100009000BF00BF00BF00BF00BFE0
:1014D000002000900846006840F0010008600846BF
:1014E000006800F00100009000BF00BF00BF00BF17
:1014F00000BF002000900846006840F0040008602B
:101500000846006800F00400009000BF00BF00BF64
:1015100000BF00BF002000900846006840F00400B3
:1015200008600846006800F00400009000BF00BF9B
:1015300000BF00BF00BF002000900846006840F0D8
:10154000040008600846006800F00400009000BF36
:1015500000BF00BF00BF00BF002000900846006829
:1015600040F0400008600846006800F0400000902D
:1015700000BF00BF00BF00BF00BF002000900846B2
:10158000006840F0400008600846006800F0400035
:10159000009000BF00BF00BF00BF00BF0020009050
:1015A0000846006840F0400008600846006800F007
:1015B0004000009000BF00BF00BF00BF00BF002080
:1015C00000900846006840F4807008600846006893
:1015D00000F48070009000BF00BF00BF00BF00BFDC
:1015E000002000900846006840F00070086008463F
:1015F000006800F00070009000BF00BF00BF002036
:1016000000900846006840F0806008600846006866
:1016100000F08060009000BF00BF00BF002000907D
:101620000846006840F0006008600846006800F066
:101630000060009000BF00BF00BF02200190029038
:1016400000200390032004900B20059001A930484E
:1016500000F0C0F90420019001A92D4800F0BAF96A
:101660008020019001A92A4800F0B4F902200190DD
:1016700001A9284800F0AEF91020019001A92548E1
:1016800000F0A8F92020019001A9224800F0A2F959
:101690004FF40060019001A91F4800F09BF94FF43E
:1016A0000050019001A91C4800F094F94FF48040CB
:1016B000019001A9184800F08DF94FF48070019055
:1016C00001200290002003900320049001A91348F8
:1016D00000F080F900BF00224FF480710F4800F045
:1016E0007BFA00BF322001F02DFD00BF0122110264
:1016F0000A4800F071FA00BF002201213D2000F0ED
:10170000D8FA3D2000F0C5FA06B010BD30380240CE
:101710000000024000080240001802400020024081
:101720002DE9F04104460E4617460025A84694F8D8
:101730004400822802D10220BDE8F081822084F892
:1017400044002068056905F01C05208A4FF47841A3
:1017500001EAC0200543481100EA8610054325F040
:10176000020545F001052068056100F041FA804658
:1017700012E000F03DFAA0EB0800B0F5803F09D37D
:10178000012084F8440000BF002084F8450000BF19
:101790000320D1E72068056905F001000028E8D1A1
:1017A0002068406980B23860012084F8440000203D
:1017B000C2E710B5044600BF94F84500012801D1E6
:1017C000022010BD012084F8450000BF022084F8EB
:1017D00044002046FFF72CFB2046FFF715FB204670
:1017E000FFF7A0F92046FFF77DF92046FFF76FF9D4
:1017F000012084F8440000BF002084F8450000BFA9
:1018000000BFDEE770B5024600230025002400BFBC
:1018100092F84500012801D1022070BD012082F814
:10182000450000BF022082F8440049B9012082F837
:10183000440000BF002082F8450000BF0120ECE713
:10184000D06A006800F0004048B1122082F84400DD
:1018500000BF002082F8450000BF0120DDE740F214
:10186000F450814208D9B1FBF0F3B1FBF0F600FB74
:10187000161010B15B1C00E00123012B13D1D06ABC
:10188000006840F04050D66A3060C1F30C00D66A60
:101890007060D06A006840F00040D66A3060D06A5C
:1018A000C068D06232E000242EE0D06A006820F0E8
:1018B0004050D66A30602CB9D06A006840F0805041
:1018C000D66A306040F2F450D66A7060581EA0426A
:1018D00010D1D06A006840F00050D66A3060581EBF
:1018E000C0EBC01000EB4000A1EB8005C5F30C007D
:1018F000D66A7060D06A006840F00040D66A3060F6
:10190000D06AC068D062641C9C42CED3106800F5D7
:101910008050406900F0040048B10426106800F5CA
:10192000805046610026106800F580504660012016
:1019300082F8440000BF002082F8450000BF00BFCD
:101940006BE72DE9F04104460E4617460025A846F0
:1019500094F84400422802D10220BDE8F0814220E0
:1019600084F844002068056905F01C05208A4FF4BE
:10197000784101EAC0200543481100EA861005437A
:1019800045F0020545F00105B8B2216848612068BC
:10199000056100F02DF9804612E000F029F9A0EB76
:1019A0000800B0F5803F09D3012084F8440000BF4F
:1019B000002084F8450000BF0320CEE720680569B9
:1019C00005F001000028E8D1012084F8440000203F
:1019D000C3E70000F8B502460B46002500240020AE
:1019E0000021DEE0012606FA01F51E6806EA05047C
:1019F000AC4275D11E7906F00306012E04D01E7983
:101A000006F00306022E13D190684F000326BE4055
:101A1000B0434F00DE68BE403043906050680126FE
:101A20008E40B0431E79C6F300168E40304350609E
:101A30001E7906F00306032E09D0D0684F00032656
:101A4000BE40B0434F009E68BE403043D0601E7918
:101A500006F00306022E13D1CF0802F1200656F835
:101A600027004E07F70E0F26BE40B0434F07FF0E6C
:101A70001E69BE403043CF0802F1200646F8270019
:101A800010684F000326BE40B0431E7906F00306DF
:101A90004F00BE40304310605E6806F08056B6F1DD
:101AA000805F7DD100BF00260096404E366846F428
:101AB00080463E4F3E603E46366806F480460096BD
:101AC00000BF00BF3A4E8F0856F827008E07370F29
:101AD0000F26BE40B043374EB24202D1002624E06A
:101AE0005EE0354EB24201D101261EE0334EB242D5
:101AF00001D1022619E0324EB24201D1032614E090
:101B0000304EB24201D104260FE02F4EB24201D135
:101B100005260AE02D4EB24201D1062605E02C4EE4
:101B2000B24201D1072600E008268F073F0FBE40D2
:101B300030431F4E8F0846F82700264E3068A043DA
:101B40005E6806F48036B6F5803F00D12043214E12
:101B50003060361D3068A0435E6806F40036B6F586
:101B6000003F00D120431B4E361D3060361D3068CB
:101B7000A0435E6806F48016B6F5801F00D12043AE
:101B8000144E08363060361D3068A0435E6806F497
:101B90000016B6F5001F00D120430E4E0C36306003
:101BA000491C1029FFF41EAFF8BD00004438024064
:101BB00008380140000002400004024000080240D2
:101BC000000C0240001002400014024000180240C5
:101BD000001C0240003C01400AB1816101E00B049D
:101BE0008361704701480068000C7047002004E0E2
:101BF000014800687047000010000020034800689A
:101C00000349097808440149086070471000002022
:101C10001800002010B50A48006840F40070084918
:101C200008600846006840F480600860032000F007
:101C30007FF80F2000F006F800F02AF8002010BD11
:101C4000003C024070B504460E4800784FF47A71AB
:101C5000B1FBF0F00C490968B1FBF0F5284600F043
:101C60009BFC08B1012070BD102C07D20022214638
:101C7000501E00F01EF80548046001E00120F2E764
:101C80000020F0E7180000200000002014000020D1
:101C9000704701460846002809DB00F01F030122B7
:101CA0009A4043099B0003F1E023C3F8002100BFE1
:101CB00070472DE9F05F80460D461646002701F07B
:101CC00011FA074639462A46334601F00700C0F1AB
:101CD000070ABAF1040F02D94FF0040A01E0C0F17B
:101CE000070AD14600F1040ABAF1070F02D24FF0F9
:101CF000000A01E0A0F1030AD4464FF0010A0AFAF3
:101D000009FAAAF1010A0AEA020A0AFA0CFA4FF0E1
:101D1000010B0BFA0CFBABF1010B0BEA030B4AEACC
:101D20000B042146404601F0E5F9BDE8F09F0000B4
:101D300000BF00F00702064B19684FF6FF03194079
:101D4000044B0B4343EA0221014B196000BF70476B
:101D50000CED00E00000FA0570B504460D460CB924
:101D6000012070BD5848006800F00700A84209D261
:101D700055490D700846006800F00700A84201D0E0
:101D80000120EEE7207800F0020002281DD1207823
:101D900000F00400042805D14C48006840F4E050ED
:101DA0004A490860207800F00800082805D1474813
:101DB000006840F46040454908604448006820F0ED
:101DC000F000A168084341490860207800F0010054
:101DD000A8B36068012807D13C4808380068C0F300
:101DE0004040B8B90120BCE76068022802D06068B2
:101DF000032807D1354808380068C0F3406048B967
:101E00000120AEE7314808380068C0F3400008B947
:101E10000120A6E72D48006820F003006168084310
:101E20002A490860FFF7E4FE064609E0FFF7E0FEF6
:101E3000801B41F28831884202D9032091E707E0F4
:101E40002248006800F00C006168B0EB810FEDD112
:101E50001D48006800F00700A84209D91A490D7012
:101E60000846006800F00700A84201D0012078E78A
:101E7000207800F00400042807D11448006820F4FA
:101E8000E050E168084311490860207800F008003C
:101E9000082808D10D48006820F46040216940EA14
:101EA000C1000A49086000F03FF808490968C1F319
:101EB0000311074A515CC84006490860064800689B
:101EC000FFF7C0FE00204CE7003C0240083802400B
:101ED000FA3A0108000000201400002001480068C0
:101EE000704700000000002000B5FFF7F7FF04492D
:101EF0000968C1F38221034A515CC84000BD00005B
:101F0000083802400A3B010800B5FFF7E7FF044923
:101F10000968C1F34231034A515CC84000BD00006A
:101F2000083802400A3B01082DE9F047002400254B
:101F30000026A1462548006800F00C0020B10428C6
:101F400005D008283AD105E0DFF8849039E0DFF8C1
:101F5000849036E01D48001F006800F03F041B48D5
:101F6000001F006800F4800078B11A481749091F63
:101F70000968C1F38811A0FB0170014622460023C5
:101F80003846FEF7C4F905460EE011480F49091F0F
:101F90000968C1F38811A0FB0170014622460023A5
:101FA0003846FEF7B4F905460848001F0068C0F33C
:101FB0000140401C4600B5FBF6F902E0DFF8109046
:101FC00000BF00BF4846BDE8F08700000838024067
:101FD0000024F40000127A00F8B504460CB9012080
:101FE000F8BD207800F00100002874D0F94800689E
:101FF00000F00C0004280DD0F648006800F00C003A
:10200000082813D1F348001F006800F48000B0F5E1
:10201000800F0BD1EF4808380068C0F3404000281B
:1020200059D06068002856D10120D9E700BF606808
:10203000B0F5803F08D1E7480838006840F48030A8
:10204000E449083908601EE06068B0F5A02F0DD1A2
:10205000E0480838006840F48020DE49083908600C
:102060000846006840F4803008600CE0D948083821
:10207000006820F48030D7490839086008460068B5
:1020800020F48020086000BF606890B1FFF7B0FDC9
:10209000054606E0FFF7ACFD401B642801D903208C
:1020A0009EE7CC4808380068C0F340400028F1D0D3
:1020B00011E0FFF79DFD054606E0FFF799FD401B87
:1020C000642801D903208BE7C24808380068C0F3B0
:1020D00040400028F1D1207800F0020002285FD1B2
:1020E000BC48006800F00C0058B1BA48006800F025
:1020F0000C0008281CD1B748001F006800F48000BD
:10210000B0B9B44808380068C0F3400020B1E068B6
:10211000012801D0012063E7AE480838006820F0AC
:10212000F800216940EAC100AA490839086037E08F
:10213000E06800B30120A8490860FFF759FD054693
:1021400006E0FFF755FD401B022801D9032047E7B1
:10215000A04808380068C0F340000028F1D09D482E
:102160000838006820F0F800216940EAC100994968
:102170000839086014E0002097490860FFF738FD2F
:10218000054606E0FFF734FD401B022801D9032075
:1021900026E7904808380068C0F340000028F1D1D5
:1021A000207800F0080008282CD16069A8B101202F
:1021B0008A490860FFF71CFD054606E0FFF718FD99
:1021C000401B022801D903200AE782486C300068CE
:1021D000C0F340000028F1D014E000207F490860DF
:1021E000FFF706FD054606E0FFF702FD401B02284B
:1021F00001D90320F4E677486C300068C0F3400052
:102200000028F1D1207800F00400042870D10027C4
:1022100070483830006800F0805090B900BF00204E
:1022200000906C483830006840F08050694938317F
:1022300008600846006800F08050009000BF00BFB2
:1022400001276748006800F48070B0B964480068EE
:1022500040F4807062490860FFF7CAFC054606E05A
:10226000FFF7C6FC401B022801D90320B8E65C48F2
:10227000006800F480700028F2D000BFA068012838
:1022800008D154486830006840F001005149683175
:1022900008601DE0A06805280DD14E486830006830
:1022A00040F004004B49683108600846006840F07F
:1022B000010008600CE047486830006820F0010029
:1022C0004449683108600846006820F0040008604E
:1022D00000BFA068A8B1FFF78BFC054609E0FFF737
:1022E00087FC401B41F28831884202D9032077E6FF
:1022F00026E0384868300068C0F340000028EED07F
:1023000013E0FFF775FC054608E0FFF771FC401B82
:1023100041F28831884201D9032061E62D486830B6
:102320000068C0F340000028EFD1012F07D12948F1
:102330003830006820F0805026493831086000BFEE
:10234000A069002845D02348006800F00C00082848
:102350005DD0A069022845D100201F490866FFF71B
:1023600047FC054606E0FFF743FC401B022801D965
:10237000032035E6174808380068C0F3406000289D
:10238000F1D1D4E907010843616A40EA81110122D1
:10239000A06AC2EB500041EA00412C20005D41EAF6
:1023A00000600C49091F086001200B490866FFF70F
:1023B0001FFC054606E0FFF71BFC401B022801D965
:1023C00003200DE6034808380068C0F34060002889
:1023D000F1D049E00838024000004742800E4742F1
:1023E00000700040002021490866FFF701FC054607
:1023F00006E0FFF7FDFB401B022801D90320EFE5B3
:102400001B480068C0F340600028F2D12CE0A069AE
:10241000012800D1E4E51648001D0668A0690128DE
:1024200020D006F48001E06981421BD106F03F0113
:10243000206A814216D147F6C0703040616AB0EB25
:10244000811F0FD106F440310122A06AC2EB500077
:10245000B1EB004F06D106F070612C20005DB1EBAE
:10246000006F01D00120BBE50020B9E50000474224
:102470000038024070B504460E4615460CB90120DE
:1024800070BD94F8490028B9002084F8480020461F
:1024900000F01CF804F108012068FEF701FD314648
:1024A000A2682068FEF72AFD2946236BD4E90102C1
:1024B000FEF7D2FCA168206850F8210040F001002E
:1024C000A268216841F822000020D9E710B586B043
:1024D000044600BF002000902248006840F0010040
:1024E000204908600846006800F00100009000BF25
:1024F00000BF00BF002000901A480838006840F074
:1025000008001849083908600846006800F008000B
:10251000009000BF00BF00BF002000900846006888
:1025200040F0100008600846006800F010000090BD
:1025300000BF00BF4CF20370019002200290012006
:102540000390022004900C20059001A90648FFF793
:1025500041FA4FF68070019001A90448FFF73AFA5A
:1025600006B010BD38380240000C02400010024096
:10257000042808D14FF0E021096941F004014FF02F
:10258000E022116107E04FF0E021096921F0040128
:102590004FF0E0221161704770B504462546681E71
:1025A000B0F1807F01D301200FE0681E4FF0E021E1
:1025B00048610F214FF0FF3000F09CFD00204FF0EC
:1025C000E021886107200861002070BD10B5044635
:1025D0000CB9012010BD94F83D0028B9002084F802
:1025E0003C00204600F025F8022084F83D00211D23
:1025F000206800F0E3FA012084F8460000BF84F868
:102600003E0001213F200155402001554120015548
:1026100000BF00BF012084F8420043200155442040
:1026200001554520015500BF012084F83D000020E0
:10263000D0E77047014691F83D00012801D0012004
:102640007047022081F83D000868C06840F0010032
:102650000B68D8601A4B086898421BD00868B0F124
:10266000804F17D0174B0868984213D0164B086854
:1026700098420FD0154B086898420BD0144B08684D
:10268000984207D0134B0868984203D0124B086851
:1026900098420CD10868806800F00702062A0CD026
:1026A0000868006840F001000B68186005E00868E1
:1026B000006840F001000B6818600020C0E70000CF
:1026C000000001400004004000080040000C0040F1
:1026D000000401400040014000180040704770476E
:1026E00001460022002391F83D2091F83E3042EA55
:1026F000030070472DE9F84F0446206805682068FC
:10270000C668206847694FF00009CA4605F00F09FE
:10271000B9F1000F0AD105F0200038B106F0200011
:1027200020B1204600F0EBFABDE8F88FB9F1000FB8
:1027300072D007F0010018B906F4907000286BD031
:1027400005F0010030B106F4807018B1206C40F043
:102750000100206405F0040030B107F0010018B159
:10276000206C40F00200206405F0020030B107F058
:10277000010018B1206C40F00400206405F008004E
:1027800048B106F0200010B907F0010018B1206C24
:1027900040F008002064206C70B305F0200028B1E0
:1027A00006F0200010B1204600F0A9FA2068406928
:1027B000C0F3801A206C00F0080010B9BAF1000FC5
:1027C00023D0204600F070FA2068406900F04000F5
:1027D000402816D12068406920F0400021684861F7
:1027E000A06B50B15648A16B0865A06BFEF7FDFBCE
:1027F00010B1A06B016D88470CE02046FFF76FFF1A
:1028000008E02046FFF76BFF04E02046FFF767FF74
:102810000020206488E7FFE7206B012879D105F0CC
:102820001000002875D006F01000002871D000BFFD
:1028300000200090206800680090206840680090A8
:1028400000BF00BF2068406900F04000402839D137
:10285000A06B006840681FFA80F8B8F1000F30D014
:10286000A08D40452DDDA4F82E80A06BC069B0F589
:10287000807F1FD02068C06820F480702168C86005
:102880002068406920F001002168486120684069A3
:1028900020F0400021684861202084F83E0000209C
:1028A00020632068C06820F010002168C860A06B19
:1028B000FEF746FBA08DE28D801A81B22046FFF71D
:1028C0000DFF31E7A08DE18D401A1FFA80F8E08DF1
:1028D000E8B1B8F1000F1AD02068C06820F49070F9
:1028E0002168C8602068406920F0010021684861C3
:1028F000202084F83E00002020632068C06820F07B
:1029000010002168C86041462046FFF7E7FE0BE74C
:10291000FFE705F0800030B106F0800018B12046D6
:1029200000F085FB00E705F0400030B106F0400004
:1029300018B1204600F0D3F9F6E600BFF4E6000037
:10294000952C000810B504460CB9012010BDA069F3
:1029500000B100E000BF94F83D0028B9002084F8E1
:102960003C00204600F028F8242084F83D00206830
:10297000C06820F400502168C860204600F01EFAAC
:102980002068006920F4904021680861206840694F
:1029900020F02A00216848612068C06840F4005097
:1029A0002168C86000202064202084F83D0084F85D
:1029B0003E000020CAE7000010B586B004462D494D
:1029C0002068884254D100BF00BF002000902A48F0
:1029D000006840F01000284908600846006800F0D0
:1029E0001000009000BF00BF00BF00BF00BF00206C
:1029F000009021481438006840F002001E49143944
:102A000008600846006800F00200009000BF00BFA8
:102A100000BF00BF00BF002000900846006840F0E3
:102A2000020008600846006800F00200009000BF45
:102A300000BF00BF402001900220029001200390BF
:102A4000022004900720059001A90C48FEF7C2FF60
:102A5000802001900720059001A90848FEF7BAFFE1
:102A60002520FFF716F9032211462520FFF721F94B
:102A700006B010BD0010014044380240000402407E
:102A800070B504460D46164694F83E00202816D12F
:102A900005B10EB9012070BD00BF94F83C000128BB
:102AA00001D10220F7E7012084F83C0000BF00209C
:102AB000206332462946204600F096FAEBE70220D2
:102AC000E9E700001D4A0168914236D11C49098896
:102AD00001F4004189BB1A49098801F4804171B1B0
:102AE000184909780A2903D00021154A118024E0E9
:102AF0001349098841F40041114A11801DE0114930
:102B000009780D2906D10E49098841F480410C4A03
:102B1000118012E00B490978094A1288C2F30D02AC
:102B2000094B995406490988491C054A11801146E8
:102B30000988C72901DD002111807047001001407C
:102B40000C0000200E0000204C020020704700BF47
:102B5000FEE700BFFEE770477047704710B5FFF70C
:102B60004DF810BD0348006840F47000014908604A
:102B70007047000088ED00E010B50E480068C0689E
:102B800000F0010078B10C4908698047002009492C
:102B90000968486200BF642006490968C862642168
:102BA0000448C16000BF6FF0010002490968086174
:102BB00010BD0000000400207800002010B502685D
:102BC000294B98420ED0B0F1804F0BD0274B984242
:102BD00008D0274B984205D0264B984202D0264B6E
:102BE000984203D122F070024B681A431E4B984260
:102BF00020D0B0F1804F1DD01C4B98421AD01C4BF6
:102C0000984217D01B4B984214D01B4B984211D0BE
:102C10001A4B98420ED01A4B98420BD0194B98423F
:102C200008D0194B984205D0184B984202D0184B47
:102C3000984203D122F44072CB681A4322F08003F9
:102C40004C6943EA040202608B68C3620B688362CA
:102C5000054B984202D0084B984201D10B6903639F
:102C60000123436110BD000000000140000400404A
:102C700000080040000C00400004014000400140FA
:102C8000004401400048014000180040001C004082
:102C90000020004070B50546AC6B0020E085E08464
:102CA0002046FFF71CFD70BD0168C96821F49071D2
:102CB0000268D1600168496921F00101026851612F
:102CC000016B012905D10168C96821F01001026872
:102CD000D160202180F83E1000210163704710B5BB
:102CE00004462068C06820F040002168C8602020A9
:102CF00084F83D002046FFF729FF002010BD70B585
:102D0000044694F83E00222856D1A068B0F5805FB2
:102D10000CD1206950B90025A66A20684068C0F32C
:102D200008003080A06A801CA06215E0A56A002619
:102D3000A068B0F5805F03D0A06828B9206918B9F1
:102D400020684068287004E02068406800F07F0038
:102D50002870A06A401CA062E08D401E80B2E08511
:102D600040BB2068C06820F020002168C86020684F
:102D7000C06820F480702168C8602068406920F035
:102D8000010021684861202084F83E00206B012862
:102D90000AD12068C06820F010002168C860A18DA9
:102DA0002046FFF79BFC02E02046FFF78BFE002049
:102DB000206370BD0020FCE70220FAE72DE9F84F00
:102DC00004462068006920F44050E1680843216807
:102DD00008612169A068084361690843E169084303
:102DE00000902068C06849F20C618843009908434C
:102DF0002168C8602068406920F44070A1690843D8
:102E00002168486176492068884203D07549206866
:102E1000884203D1FFF778F8814602E0FFF764F8B3
:102E20008146E069B0F5004F6CD102206168A0FBDB
:102E3000015003461920A9FB007001462A46384676
:102E4000FDF765FA6421B0FBF1F04FEA001A0220A9
:102E50006168A0FB01510B461920A9FB00712A46AD
:102E60003846FDF754FA834602206168A0FB015002
:102E700003461920A9FB00712A463846FDF747FA98
:102E80006421B0FBF1F000EBC00101EB0010ABEBF3
:102E90008000322101EBC0006421B0FBF1F000F0B2
:102EA000F8000AEB400A02206168A0FB01500346CB
:102EB0001920A9FB007001462A463846FDF727FA7B
:102EC000834602206168A0FB015003461920A9FB3C
:102ED00000712A463846FDF71AFA6421B0FBF1F07A
:102EE00000EBC00101EB0010ABEB8000322101EBE5
:102EF000C0006421B0FBF1F000F0070050442168ED
:102F000088606AE004206168A0FB01500346192034
:102F1000A9FB007001462A463846FDF7F8F98246BB
:102F200004206168A0FB015003461920A9FB007032
:102F300001462A463846FDF7EAF96421B0FBF1F074
:102F400000EBC00101EB0010AAEB8000322101EB85
:102F500000106421B0FBF1F000F0F00A0420616879
:102F6000A0FB017003461920A9FB00513A462846F0
:102F7000FDF7CDF96421B0FBF1F00AEB001A042053
:102F80006168A0FB01510B461920A9FB00712A467C
:102F90003846FDF7BCF9834604206168A0FB015068
:102FA00003461920A9FB007001462A463846FDF762
:102FB000AEF96421B0FBF1F000EBC00101EB0010B1
:102FC000ABEB8000322101EB00106421B0FBF1F08B
:102FD00000F00F00504421688860BDE8F88F0000C1
:102FE000001001400014014010B5034699629A8513
:102FF000DA8500201864222083F83E0000BF0020FC
:1030000083F83C0000BF1868C06840F480701C68FA
:10301000E0601868406940F001001C686061186851
:10302000C06840F020001C68E060002010BD014630
:1030300091F83D00212828D18868B0F5805F0BD138
:10304000086948B90A6A1088C0F308000B6858601C
:10305000086A801C086205E00B6A581C0862187830
:103060000B685860C88C401E80B2C88458B9086884
:10307000C06820F080000B68D8600868C06840F025
:1030800040000B68D860002070470220FCE7000079
:1030900070B500240F4D1048FFF72CFB00BF03E074
:1030A000641CAC4200D904E00B48FFF719FB202850
:1030B000F6D100BF002403E0641CAC4200D906E056
:1030C000012206490448FFF7DBFC0028F4D100BFC9
:1030D00070BD0000FFFF0100140300200E0000205F
:1030E00000BFFEE702480068C0F3022070470000FE
:1030F0000CED00E010B5002804DB0A07130E054AAA
:10310000135406E00A07140E034A00F00F031B1FB6
:10311000D45410BD00E400E018ED00E030380A2877
:1031200001D2012070470020704700BF70470000A7
:1031300010B504460420FFF71BFA0148046010BDD7
:103140000400002070B504461E2094FBF0F594FBAB
:10315000F0F100FB114604E047F2305000F00CF8AB
:103160006D1E002DF8D12EB14FF47A7106FB01F0DF
:1031700000F002F870BD000070B5034600224FF069
:10318000E02675690D4E366803FB06F44FF0E02625
:10319000B16910E04FF0E026B06988420BD0884258
:1031A00002D20E1A324402E02E1A0E443244014674
:1031B000A24200D300E0EDE700BF70BD0400002094
:1031C00070B505460E4600BF05B970BD00BF6C6AFC
:1031D0004CB16079082806D13068E169884202D193
:1031E000284600F0FFF900BFEFE77CB5064600BFB8
:1031F00006B97CBD00BF746A00BF04B9F9E700BF1F
:1032000000206082A06A401C70B1A06A1E303C2180
:10321000B0FBF1F5B5F5803F01D34FF6FF75A58200
:10322000A08A08B90120A082E06A401C80B1E06A4F
:103230001E303C21B0FBF1F5B5F5803F01D34FF6D0
:10324000FF756581608908B9012060816089E0812E
:10325000206B401C80B1206B1E303C21B0FBF1F58F
:10326000B5F5803F01D34FF6FF75A581A08908B958
:103270000120A081A08920826089A189884204DB85
:10328000A089002801DD00206081E07910B1206A6A
:1032900001900FE0207F7F2802DCFF21019108E0F0
:1032A000C02803DB6FF07F41019102E04FF6FF7110
:1032B000019100BF606A00900A21204601F022FAC5
:1032C0006B4601AA04F11C01304608F0D5FA00BF94
:1032D0008FE72DE9F04105466C6A0821204601F090
:1032E00011FA002204F11C01284601F06FFF074685
:1032F000A079FF2802DAA079401CA0714FF4FA7679
:1033000006F2F310314690FBF1F02081BDE8F08128
:1033100070B51848056829E06C6A34B3607920B349
:10332000A08A68B1608A401C80B26082A18A88420B
:1033300006D1284601F04CF8284601F0EBF914E0DC
:10334000208A40B1218A481E2082012903D12846C3
:1033500001F062FA09E0E08938B1E189481EE081B4
:10336000012902D1284601F036FA2D68002DD3D16B
:1033700070BD0000B80100202DE9F05F07460D4642
:1033800016469A4600BF17B90020BDE8F09F00BF5F
:1033900000BF0DB90020F8E700BF4FF420724FF4D2
:1033A0009A71362008F04EFB8146B9F1000F01D129
:1033B0000020EAE700BFB9F80A00B0F59A7F08D20A
:1033C00000BF31A340F272723AA14AA0FDF716F88D
:1033D00000BF00BF032E02D16879032808D1A87965
:1033E00018B9FCF753FF4D4908604C480068286045
:1033F000D9F804404FF49A712046FDF716FA0120DF
:103400002070607097F83000A070286807F052FABA
:103410006060082E0BD0042E09D0072E07D0032E93
:1034200007D16879052802D06879042801D1786825
:10343000E0604FF000080BE007F12A0010F80810D8
:1034400004F11C0000F8081008F101001FFA80F8D0
:10345000B8F1060FF0D33248C4F8EC00012335224E
:1034600004F1F001002000F0A1FA8346324604F195
:10347000F001584600F0E6FA8346BAF1000F01D099
:10348000AAF800B0484680E72E2E5C2E2E5C4D69CF
:1034900064646C6577617265735C6C7769705C738A
:1034A00072635C636F72655C697076345C646863D8
:1034B000702E6300646863705F6372656174655F3A
:1034C0006D73673A20636865636B2074686174206C
:1034D000666972737420706275662063616E20681D
:1034E0006F6C642073747275637420646863705FBA
:1034F0006D736700417373657274696F6E20222566
:103500007322206661696C6564206174206C696E49
:103510006520256420696E2025730A00340200208E
:103520006382536310B500BF0E480078002808DCA2
:1035300000BF0DA34FF4827216A11FA0FCF75EFF1F
:1035400000BF00BF07480078401E064908700846C3
:10355000007830B9224800680EF052FF0020204960
:10356000086010BD300200202E2E5C2E2E5C4D69AE
:1035700064646C6577617265735C6C7769705C73A9
:1035800072635C636F72655C697076345C646863F7
:10359000702E6300646863705F7063625F7265665B
:1035A000636F756E7428293A20726566636F756E55
:1035B00074206572726F7200417373657274696F03
:1035C0006E2022257322206661696C656420617417
:1035D000206C696E6520256420696E2025730A00C1
:1035E0002C0200202DE9FE4F0646746A0C2120466D
:1035F00001F088F802AB042221463046FFF7BCFEFA
:10360000054665B3D5F804800423322208F1F001A1
:10361000BDF8080000F0CAF90290E06907F04AF925
:103620008246524608F1F001BDF8080000F068FA41
:1036300002902A4608F1F001BDF8080000F038FBBE
:1036400011484323114A2946CDE90060104800681B
:103650000EF03CFF0746284608F0CAFD01E04FF097
:10366000FF37A079FF2802DAA079401CA07142F24E
:10367000107909F2F3104FF4FA7190FBF1F0208108
:103680003846BDE8FE8F0000383C01083C3C01088C
:103690002C0200202DE9FE4F07467C6A4FF0000AFD
:1036A0000020E0610621204601F02CF802AB012247
:1036B00021463846FFF760FE0546002D42D06E6871
:1036C0000223392206F1F001BDF8080000F06EF97E
:1036D00002903A8D06F1F001BDF8080000F082FA80
:1036E00002900323372206F1F001BDF8080000F034
:1036F0005DF90290D0460DE0224810F8082006F14E
:10370000F001BDF8080000F09DF9029008F10100F9
:1037100000F0FF08B8F1030FEED32A4606F1F001DE
:10372000BDF8080000F0C4FA17484323174A294699
:10373000CDE90070164800680EF0C8FE284608F073
:1037400057FD00BFA079FF2802DAA079401CA071C4
:10375000A079062803DAA1790120884000E03C2006
:1037600000EB4001C1EBC0104FF6FF7101EAC00948
:1037700009F2F3104FF4FA7190FBF1F020815046FA
:10378000BDE8FE8F28020020383C01083C3C0108BF
:103790002C02002070B50C48056812E06C6A7CB100
:1037A0002089012803DD2089401E208108E020892E
:1037B000012805D12089401E2081284601F050F8BB
:1037C0002D68002DEAD170BDB801002070B5054606
:1037D0000E466C6A0020206260621A48C07810B100
:1037E0001948C068A0621748007918B116480069E6
:1037F000E06202E0A06A4008E0621248407918B135
:1038000011484069206304E0A06AC0EBC000C00812
:1038100020633069E0610B48807938B10A498869D2
:1038200007F048F820620120E07101E00020E0711B
:103830000448C07920B10449C86907F03BF86062C8
:1038400070BD0000200200205CF1012070B504462C
:10385000656A0C21284600F055FF054B1A461146B3
:10386000204608F009F82046FFF714FF70BD00005D
:10387000383C010870B505460E466C6A07488078EA
:1038800058B1002020810649886807F013F8A0612C
:103890003069E061284600F07DFE70BD2002002006
:1038A0005CF1012010B51E480078002831D100BF1E
:1038B0001C480068002807D000BF1BA3EA2225A1EE
:1038C0002EA0FCF79BFD00BF00BF0EF057FD154971
:1038D00008600846006810B94FF0FF3010BD11486D
:1038E0000068407A40F020000E490968487244227E
:1038F0002C490C4800680EF0D5FA432229490948A2
:1039000000680EF021FB00222749064800680EF0EF
:103910006FFD03480078401C014908700020DDE776
:10392000300200202C0200202E2E5C2E2E5C4D69D1
:1039300064646C6577617265735C6C7769705C73E5
:1039400072635C636F72655C697076345C64686333
:10395000702E6300646863705F696E635F7063629A
:103960005F726566636F756E7428293A206D656DA8
:103970006F7279206C65616B0000000041737365A4
:103980007274696F6E2022257322206661696C65EE
:1039900064206174206C696E6520256420696E2046
:1039A00025730A00383C0108A94200082DE9F041BE
:1039B00004460D4617461E4600BFA01C304444284E
:1039C00008D900BF09A340F29952134913A0FCF78C
:1039D00015FD00BF00BF2046611C8CB22F5420464D
:1039E000611C8CB22E542046BDE8F0812E2E5C2E38
:1039F0002E5C4D6964646C6577617265735C6C778D
:103A000069705C7372635C636F72655C6970763455
:103A10005C646863702E6300A43E010841737365A3
:103A20007274696F6E2022257322206661696C654D
:103A300064206174206C696E6520256420696E20A5
:103A400025730A0070B504460D46164600BF442C87
:103A500008D300BF07A340F2A55211A11EA0FCF796
:103A6000CDFC00BF00BF2046611C8CB22E54204606
:103A700070BD00002E2E5C2E2E5C4D6964646C655A
:103A800077617265735C6C7769705C7372635C6399
:103A90006F72655C697076345C646863702E630075
:103AA000646863705F6F7074696F6E5F627974656C
:103AB0003A206F7074696F6E735F6F75745F6C65B9
:103AC0006E203C20444843505F4F5054494F4E5362
:103AD0005F4C454E00000000417373657274696F5E
:103AE0006E2022257322206661696C6564206174F2
:103AF000206C696E6520256420696E2025730A009C
:103B000070B504460D46164600BF201D442808D94E
:103B100000BF10A340F2B65219A128A0FCF76EFC1A
:103B200000BF00BF320E2046611C8CB22A54C6F37F
:103B300007422046611C8CB22A54C6F30722204655
:103B4000611C8CB22A542046611C8CB22E54204633
:103B500070BD00002E2E5C2E2E5C4D6964646C6579
:103B600077617265735C6C7769705C7372635C63B8
:103B70006F72655C697076345C646863702E630094
:103B8000646863705F6F7074696F6E5F6C6F6E678F
:103B90003A206F7074696F6E735F6F75745F6C65D8
:103BA0006E202B2034203C3D20444843505F4F5032
:103BB00054494F4E535F4C454E00000041737365AE
:103BC0007274696F6E2022257322206661696C65AC
:103BD00064206174206C696E6520256420696E2004
:103BE00025730A0070B504460D46164600BFA01C9A
:103BF000442808D900BF0AA340F2AD5213A122A065
:103C0000FCF7FCFB00BF00BF320A2046611C8CB2EF
:103C10002A542046611C8CB22E54204670BD0000F0
:103C20002E2E5C2E2E5C4D6964646C657761726526
:103C3000735C6C7769705C7372635C636F72655CF4
:103C4000697076345C646863702E630064686370C6
:103C50005F6F7074696F6E5F73686F72743A206F14
:103C60007074696F6E735F6F75745F6C656E202B17
:103C70002032203C3D20444843505F4F5054494F30
:103C80004E535F4C454E0000417373657274696F0B
:103C90006E2022257322206661696C656420617440
:103CA000206C696E6520256420696E2025730A00EA
:103CB00070B504460D461646FF222046611C8CB2A4
:103CC0002A5404E000222046611C8CB22A54442C61
:103CD00002D304F0030008B1442CF3D304F1F00044
:103CE00081B2304608F076FB70BD00002DE9F04F40
:103CF0008BB08146002006900590CC4800210160E1
:103D00004160B9F80A002C2803D2881E0BB0BDE828
:103D1000F08FD9F8040004904FF0F00AB9F80800C9
:103D2000079000BF4C46CDF820A00AE06089AAEBBE
:103D300000001FFA80FA61890798401A80B2079044
:103D4000246814B160895045F0DD14B96FF00100AA
:103D5000DCE755460798099060680A9031E10A98B7
:103D6000405D039000274FF0FF38A81C1FFA80FB2E
:103D7000AB4501DAB81EC9E76189681C814203DDE1
:103D8000691C0A98465C07E0206818B12068406802
:103D9000007800E00020064637460398342834D0E7
:103DA00007DC78B1012811D0032819D0332866D157
:103DB00021E035283BD0362843D03A284BD03B2849
:103DC0005DD152E00020064607465CE000BF042EAD
:103DD00002D06FF0050099E700BF4FF0060852E0EF
:103DE000042700BFBE4202DA6FF005008EE700BF75
:103DF0004FF0070847E000BF042E02D06FF0050027
:103E000084E700BF4FF003083DE000BF012E02D061
:103E10006FF005007AE700BF00BF0898F02802D0D5
:103E20006FF0050072E700BF4FF000082BE000BF05
:103E3000012E02D06FF0050068E700BF4FF00108C7
:103E400021E000BF042E02D06FF005005EE700BF46
:103E50004FF0020817E000BF042E02D06FF00500FB
:103E600054E700BF4FF004080DE000BF042E02D05D
:103E70006FF005004AE700BF4FF0050803E0002798
:103E800000BF00BF00BF00BF039810B9681C85B217
:103E90007BE0A819801CB0F5803F02DB6FF00100C9
:103EA00034E7A819801C85B2002F6EDD0020029037
:103EB00000BF00BFB8F1000F02DBB8F1080F08DB4C
:103EC00000BF5BA340F2796264A169A0FCF796FA97
:103ED00000BF00BF554810F80800B0BB042F01DA3E
:103EE000384600E0042001905B4602A92046019A72
:103EF00008F06AF801460198814202D06FF0010093
:103F000004E7042F27DD00BFF91707EB9171891033
:103F1000A7EB810111B16FF00500F7E600BF0120AA
:103F2000424901F80800029806F0C4FC5A4941F8D9
:103F30002800381FC7B20BF1040080B2009000982F
:103F4000584503DA6FF00100E0E61DE0DDF800B04F
:103F500008F10108ADE7042F04D1029806F0AAFC8D
:103F6000029009E000BF012F02D06FF00500CDE6FE
:103F700000BF9DF80800029001202C4901F80800BC
:103F80004549029841F8280000BF6089A84217DC23
:103F90006089281A85B261890998401A80B209900F
:103FA0000998854209DA246800BF14B96FF005004A
:103FB000ACE600BF60680A9002E06FF00100A5E681
:103FC00000BF3CB10998854204DA0A98405DFF2899
:103FD0007FF4C5AE15480078A0B12F4908680021CC
:103FE000124A1170012802D10121069109E002282C
:103FF00002D10121059104E0032802D1012105919C
:10400000069100BF069830B1002006904FF06C0A70
:10401000EC20079086E6059830B1002005904FF01F
:104020002C0A6C2007907DE600206FE6200200201D
:104030002E2E5C2E2E5C4D6964646C657761726512
:10404000735C6C7769705C7372635C636F72655CE0
:10405000697076345C646863702E630063686563BE
:104060006B206465636F64655F69647800000000BD
:10407000417373657274696F6E2022257322206606
:1040800061696C6564206174206C696E65202564CB
:1040900020696E2025730A005CF101202DE9FC47A0
:1040A00007467C6A0421204600F02CFB01AB03226A
:1040B00021463846FFF760F90546002D42D06E686C
:1040C0000223392206F1F001BDF80400FFF76EFC6F
:1040D00001903A8D06F1F001BDF80400FFF782FD72
:1040E00001900323372206F1F001BDF80400FFF729
:1040F0005DFC01904FF000080DE0224810F8082008
:1041000006F1F001BDF80400FFF79CFC019008F1F6
:10411000010000F0FF08B8F1030FEED32A4606F1C4
:10412000F001BDF80400FFF7C3FD4323164A2946FA
:104130001648009700680EF08BF98146284608F073
:1041400057F801E04FF0FF39A079FF2802DAA07993
:10415000401CA071A0790A2805DAA0794FF47A7181
:1041600010FB01F001E042F210701FFA80FA0AF22F
:10417000F3104FF4FA7190FBF1F020814846BDE84E
:10418000FC870000280200203C3C01082C02002093
:104190002DE9FC5F8046D8F824400321204600F03A
:1041A000B1FA01AB032221464046FFF7E5F8064687
:1041B000002E54D075680223392205F1F001BDF8B4
:1041C0000400FFF7F3FB01904FF4107205F1F001CA
:1041D000BDF80400FFF706FD01900423322205F12B
:1041E000F001BDF80400FFF7E1FB0190E06906F083
:1041F00061FB83465A4605F1F001BDF80400FFF764
:104200007FFC01900323372205F1F001BDF8040083
:10421000FFF7CCFB019000270AE02048C25D05F1C2
:10422000F001BDF80400FFF70DFC0190781CC7B247
:10423000032FF2D3324605F1F001BDF80400FFF779
:1042400037FD4323164A31461648CDF800800068F2
:104250000EF0FEF88146304607F0CAFF01E04FF04D
:10426000FF39A079FF2802DAA079401CA071A0795B
:104270000A2805DAA0794FF47A7110FB01F001E009
:1042800042F210701FFA80FA0AF2F3104FF4FA713A
:1042900090FBF1F020814846BDE8FC9F28020020F9
:1042A0003C3C01082C0200202DE9F05F1646DDF8A9
:1042B00028B0444847687C6AD6F804900CB120794D
:1042C00000B97AE000BF00BF70892C2800DA74E0E2
:1042D00099F80000022800D06FE000250AE007F1FD
:1042E0002A00415D09F11C00405D814200D064E07C
:1042F000681CC5B297F83000A84201DD062DEED348
:10430000D9F8040006F0D6FA2168884200D054E0BB
:1043100021463046FFF7EAFC00B14EE02A484078DB
:1043200000B94AE0D6F804A0284890F80480B8F113
:10433000050F24D16079012810D151463846FFF786
:1043400045FA97F8310000F0080018B13846FEF73A
:10435000C0FF31E03846FEF748FF2DE060790328C2
:1043600005D06079042802D06079052824D151460F
:104370003846FFF72BFA3846FEF737FF1CE0B8F156
:10438000060F0FD16079032808D06079012805D085
:104390006079042802D06079052803D13846FFF7F8
:1043A00055FA09E0B8F1020F06D16079062803D169
:1043B00051463846FFF75EFA00BF304607F018FF57
:1043C000BDE8F09F80AD0120200200205CF10120BB
:1043D0002DE9FE430646746A0CB9BDE8FE83607998
:1043E00000B9FAE7A06902900020A061E0612062B4
:1043F00060622063E062A062A08260822082E0812D
:10440000304600F0D4F900283BD00021204600F0CF
:1044100079F901AB072221463046FEF7ADFF05468C
:1044200045B36F680423362207F1F001BDF804009C
:10443000FFF7BCFA0190029806F03CFA804642462B
:1044400007F1F001BDF80400FFF75AFB01902A467E
:1044500007F1F001BDF80400FFF72AFC432302AA8C
:1044600029460E48009600680DF0F2FF284607F036
:10447000BFFE00BF0A4B1A461146304607F0FCF952
:1044800003E00021204600F03DF9207918B1FFF744
:1044900049F80020207100BF9FE700002C02002097
:1044A000383C01082DE9FC4707467C6A0521204677
:1044B00000F028F901AB032221463846FEF75CFFE5
:1044C0000546002D43D06E680223392206F1F00123
:1044D000BDF80400FFF76AFA01903A8D06F1F00189
:1044E000BDF80400FFF77EFB01900323372206F19D
:1044F000F001BDF80400FFF759FA01904FF00008F1
:104500000DE0224810F8082006F1F001BDF8040083
:10451000FFF798FA019008F1010000F0FF08B8F1E8
:10452000030FEED32A4606F1F001BDF80400FFF7B1
:10453000BFFB432304F11802294615480097006881
:104540000DF086FF8146284607F052FE01E04FF04D
:10455000FF39A079FF2802DAA079401CA071A07968
:104560000A2805DAA0794FF4FA6110FB01F001E0A6
:1045700044F620601FFA80FA0AF2F3104FF4FA7141
:1045800090FBF1F020814846BDE8FC87280200201E
:104590002C0200202DE9FE4F074600BF1FB96FF027
:1045A0000F00BDE8FE8F00BF7C6A00BF14B96FF03A
:1045B0000500F6E700BF0121204600F0A3F802AB9A
:1045C000032221463846FEF7D7FE0646002E6FD05E
:1045D00075680223392205F1F001BDF80800FFF7E4
:1045E000E5F902903A8D05F1F001BDF80800FFF7FA
:1045F000F9FA02900423322205F1F001BDF8080017
:10460000FFF7D4F90290E06906F054F983465A4660
:1046100005F1F001BDF80800FFF772FA02900423DB
:10462000362205F1F001BDF80800FFF7BFF902904E
:10463000A06906F03FF983465A4605F1F001BDF83E
:104640000800FFF75DFA02900323372205F1F0011D
:10465000BDF80800FFF7AAF902904FF000080DE03E
:10466000244810F8082005F1F001BDF80800FFF714
:10467000E9F9029008F1010000F0FF08B8F1030F1A
:10468000EED3324605F1F001BDF80800FFF710FB4C
:1046900019484323194A3146CDE90070184800688B
:1046A0000DF014FF8146304607F0A2FD02E0FFE75F
:1046B0004FF0FF39A079FF2802DAA079401CA071E1
:1046C000A079062803DAA1790120884000E03C2087
:1046D00000EB4001C1EBC0104FF6FF7101EAC00AC8
:1046E0000AF2F3104FF4FA7190FBF1F02081484682
:1046F00057E7000028020020383C01083C3C010834
:104700002C02002042798A4203D04171002282713A
:104710000281704770B5044600BF14B96FF00F00F6
:1047200070BD00BF00BF94F8310000F0010010B967
:104730006FF00F00F4E700BF656A208DB0F5107FC1
:1047400002DA4FF0FF30EBE74DB9342006F0EAFA19
:10475000054615B94FF0FF30E2E7656203E02879BE
:1047600008B1FEF7DFFE34212846FCF780F8FFF79A
:1047700099F810B14FF0FF30D2E70120287194F87A
:104780003100C0F3800028B902212846FFF7BAFFA4
:104790000020C5E72046FEF77DFF06462EB12046E5
:1047A000FFF716FE4FF0FF30BAE73046B8E7014694
:1047B00079B1486A68B14A6A50790A2805D05079B7
:1047C000052802D05079042801D10120704700202B
:1047D000FCE70020FAE770B505466C6A60790128AD
:1047E00005D060790A2802D06079052813D12846BF
:1047F000FFF758FEA189628A881A00EBD071012266
:10480000B2EB610F07DCA189628A881A00EBD071D4
:10481000C1F34F01E18170BD70B505466C6A6079E6
:10482000012808D060790A2805D06079052802D0CF
:104830006079042813D12846FFF730FCA18A628AE8
:10484000881A00EBD0710122B2EB610F07DCA18A5C
:10485000628A881A00EBD071C1F34F01218270BDCA
:1048600070B505466C6A60790C2802D0607906281C
:1048700003D12846FEF70EFF2BE0607901280DD109
:10488000A079052803DC2846FFF784FE21E02846AE
:10489000FFF79EFD2846FFF73DFF1AE060790828E4
:1048A0000AD1A079012803DC2846FEF712FD10E0AA
:1048B0002846FEF79AFC0CE06079032809D1A0791C
:1048C000022803DA2846FFF763FC02E02846FEF7D9
:1048D000E1FE70BD70B504460D4600BF05F0030053
:1048E000002808D000BF08A34FF4B67210A118A08A
:1048F000FBF784FD00BF00BF2E46A0680068306053
:10490000A068066070BD00002E2E5C2E2E5C4D69E6
:1049100064646C6577617265735C6C7769705C73F5
:1049200072635C636F72655C6D656D702E63000011
:104930006D656D705F667265653A206D656D20709E
:10494000726F7065726C7920616C69676E65640066
:10495000417373657274696F6E202225732220661D
:1049600061696C6564206174206C696E65202564E2
:1049700020696E2025730A0070B50546A868046892
:10498000002C13D02068A968086000BF04F0030061
:10499000002808D000BF06A34FF48C720EA117A008
:1049A000FBF72CFD00BF00BF204670BD0020FCE7D8
:1049B0002E2E5C2E2E5C4D6964646C657761726589
:1049C000735C6C7769705C7372635C636F72655C57
:1049D0006D656D702E6300006D656D705F6D616C4F
:1049E0006C6F633A206D656D702070726F706572C8
:1049F0006C7920616C69676E656400004173736552
:104A00007274696F6E2022257322206661696C655D
:104A100064206174206C696E6520256420696E20B5
:104A200025730A0070B50546002411E004EB44002C
:104A3000094901EBC000067D4EB104EB440001EBD7
:104A4000C0008068A84202D1204600F083F9641CAF
:104A50000A2CEBDB70BD00007CF101202DE9FF5F2B
:104A60000646894617464FF00A0AD346D046002428
:104A70000A200390002002900190009000BF73E094
:104A800004EB4400764901EBC000057DB8F10A0F44
:104A900002D10DB9A04665E0002D63D000BF012D05
:104AA0000AD0022D08DA00BF6EA340F2231279A1CA
:104AB00088A0FBF7A3FC00BF00BFAEB104EB44012C
:104AC000674A02EBC1013068496888420CD13FB1A6
:104AD00004EB4400114601EBC0008068B84203D1EA
:104AE000204604B0BDE8F09F012D28D104EB44001E
:104AF0005B4951F8300080B104EB440001EBC00089
:104B0000418A029881422DDB039404EB440054490E
:104B100001EBC000408A029024E004EB44005049BD
:104B200001EBC000418A019881421BDBA24604EBE5
:104B300044004B4901EBC000408A019012E0022D75
:104B400010DB04EB4400464901EBC000418A0098A9
:104B5000814207DBA34604EB4400414901EBC0005E
:104B6000408A0090601C04B20A2C89DB09F0020024
:104B700028B9B8F10A0F05D109F0010010B94FF0BA
:104B8000FF30AEE7B8F10A0F01DA444631E0BBF17D
:104B90000A0F11DA5C4600BF04EB4400304951F8BB
:104BA000300040B100BF2FA340F26D1253A149A0C5
:104BB000FBF724FC00BF0CE0BAF10A0F01DA5446FF
:104BC00007E003980A2801DA039C02E04FF0FF3067
:104BD00087E700BF0A2C08DB00BF22A340F27F1248
:104BE0004CA13CA0FBF70AFC00BF00BF204600F030
:104BF000B1F800BF0A2C08DB00BF1AA340F28312F1
:104C000044A134A0FBF7FAFB00BF00BF00BF04EBD8
:104C10004400134901EBC000007D40B100BF11A367
:104C20004FF4C27240A12BA0FBF7E8FB00BF00BF0E
:104C300036B104EB44010A4A02EBC1013068486016
:104C4000002004EB4401064A02EBC101488204EB58
:104C50004400114601EBC0008760204641E7000098
:104C60007CF101202E2E5C2E2E5C4D6964646C65F7
:104C700077617265735C6C7769705C7372635C6397
:104C80006F72655C697076345C6574686172702EF1
:104C9000630000007374617465203D3D20455448F5
:104CA0004152505F53544154455F50454E44494E24
:104CB00047207C7C207374617465203E3D20455400
:104CC000484152505F53544154455F535441424C04
:104CD00045000000417373657274696F6E20222570
:104CE0007322206661696C6564206174206C696E52
:104CF0006520256420696E2025730A006172705F4B
:104D00007461626C655B695D2E71203D3D204E557E
:104D10004C4C000069203C204152505F5441424CB1
:104D2000455F53495A4500006172705F7461626C5F
:104D3000655B695D2E7374617465203D3D2045544B
:104D4000484152505F53544154455F454D5054596A
:104D50000000000010B5044604EB44000C4951F873
:104D6000300060B104EB4401094A52F8310007F009
:104D70003FFA002004EB4401054A42F831000020CC
:104D800004EB4401024A02EBC101087510BD0000AA
:104D90007CF10120F0B587B007460D4600BF0DB984
:104DA00007B0F0BD00BF7C682088B0F5807F08D1D7
:104DB0002079062805D16079042802D16088082866
:104DC00003D0384607F014FAEAE7D4F80E0006904C
:104DD000A0690590686808B9002607E00598696829
:104DE000884201D1012000E0002006460EB10120DA
:104DF00000E00220034604F1080206A9284600F05C
:104E000097FCE088B0F5807F03D0B0F5007F19D122
:104E100013E086B1022206AB04F10800291DCDE99A
:104E20000232CDE9001005F12A0302462631284658
:104E300000F02EFB00E000BF05E006A92846FEF7C3
:104E4000BFF900E000BF00BF384607F0D1F900BF4E
:104E5000A6E700002DE9FE4304460F461546A94685
:104E600000BF44B900BF5DA340F21E3267A16BA032
:104E7000FBF7C4FA00BF00BF00BF47B900BF57A38C
:104E800040F21F326FA165A0FBF7B8FA00BF00BF68
:104E900000BF45B900BF51A34FF448726CA15FA099
:104EA000FBF7ACFA00BF00BF2146286801F0CAF842
:104EB00010B1DFF8AC8186E0287800F0F000E0283F
:104EC00016D101208DF8040000208DF805005E2029
:104ED0008DF80600687800F07F008DF80700A8784C
:104EE0008DF80800E8788DF809000DF1040869E0F4
:104EF0002868A1680840D4E90112114088420ED008
:104F0000288880B24FF6A961884208D0E06810B1C5
:104F100004F10C0903E06FF00300BDE8FE83514883
:104F2000007800EB4000504901EBC000007D0228F2
:104F30001BDB4C48007800EB400001EBC0008068B0
:104F4000A04212D14749097801EB4101464A02EBE0
:104F5000C101D9F800004968884206D14148027869
:104F60003946204600F082F8D7E7002622E006EB1B
:104F700046003D4901EBC000007D022818DB06EB2E
:104F8000460001EBC0008068A04211D106EB46014B
:104F9000354A02EBC101D9F800004968884207D1BF
:104FA0003048067032463946204600F05FF8B4E7D4
:104FB000701CC6B20A2EDADB3A464946204600F09B
:104FC00005F9AAE700BF4FF40060434604F12A0246
:104FD00039460090204600F02FFD9EE72E2E5C2ED5
:104FE0002E5C4D6964646C6577617265735C6C7787
:104FF00069705C7372635C636F72655C6970763450
:105000005C6574686172702E630000006E6574697F
:105010006620213D204E554C4C00000041737365C5
:105020007274696F6E2022257322206661696C6537
:1050300064206174206C696E6520256420696E208F
:1050400025730A007120213D204E554C4C00000074
:1050500069706164647220213D204E554C4C000003
:10506000403C0108380200207CF10120F8B50546DB
:105070000E46144600BF04EB4400314901EBC0006A
:10508000007D022808DA00BF2EA340F2EE2239A1EB
:1050900044A0FBF7B3F900BF00BF04EB440028496C
:1050A00001EBC000007D022839D104EB440001EB84
:1050B000C000408AB0F58E7F11DD04EB44000A4643
:1050C00002EBC000011D284600F0A2FA38BB032005
:1050D00004EB44011A4A02EBC10108751FE004EB1E
:1050E0004400174901EBC000408AB0F5877F16DB0A
:1050F00004EB44000B4603EBC00000F10C0204EB90
:10510000440003EBC000011D284600F08DFA30B9C1
:10511000032004EB44010A4A02EBC10108754FF475
:105120000060009004EB4400054901EBC00000F171
:105130000C0305F12A023146284600F07DFCF8BD3B
:105140007CF101202E2E5C2E2E5C4D6964646C6512
:1051500077617265735C6C7769705C7372635C63B2
:105160006F72655C697076345C6574686172702E0C
:10517000630000006172705F7461626C655B6172F4
:10518000705F6964785D2E7374617465203E3D20A4
:105190004554484152505F53544154455F53544124
:1051A000424C4500417373657274696F6E2022250D
:1051B0007322206661696C6564206174206C696E7D
:1051C0006520256420696E2025730A002DE9FC5FA7
:1051D00081460F46164609F12A0001904FF0FF3A2A
:1051E0004FF0000B4946386800F02CFF38B938788A
:1051F00000F0F000E02802D00FB1386818B96FF065
:105200000F00BDE8FC9F4A4601213846FFF726FC07
:105210008046B8F1000F02DA4FFA88F0F1E700BFDC
:10522000B8F17F0F08D300BF69A340F2C13274A167
:1052300077A0FBF7E3F800BF00BF08F0FF0404EB22
:1052400044007D4901EBC000007D78B94FF0010BAF
:10525000012004EB4401784A02EBC101087504EB1C
:105260004400114601EBC000C0F8089000BF04EBF9
:105270004400714901EBC000007D01280FD004EB10
:10528000440001EBC000007D022808DA00BF50A3F3
:1052900040F2CD3269A15EA0FBF7B0F800BF00BFBD
:1052A000BBF1000F00D1E6B93946484600F0B0F92D
:1052B0008246BAF1000F11D104EB44005E4901EBC4
:1052C000C000007D012809D1BBF1000F06D10020EC
:1052D00004EB4401584A02EBC10148820EB9504622
:1052E0008FE700BF46B900BF39A340F2E9325DA1A4
:1052F00047A0FBF783F800BF00BF04EB44004E4912
:1053000001EBC000007D022811DB594804704FF406
:105310000060009004EB440001EBC00000F10C03BE
:1053200031464846019A00F087FB82464EE004EB86
:105330004400414901EBC000007D012846D1002016
:105340000090354618E000BF6889298988420AD153
:10535000286840B100BF1EA340F2F93245A12CA03D
:10536000FBF74CF800BF00BF287B00F0400010B1F5
:105370000120009002E02D68002DE4D100BF0098CC
:1053800038B132464FF420710E2006F0B9FD0546C3
:1053900003E03546284607F0CBF8A5B104EB4400FE
:1053A000254951F8300030B104EB4401224A52F84B
:1053B000310006F01DFF04EB44001F4941F8305056
:1053C0004FF0000A01E04FF0FF3A00BF504618E7E7
:1053D0002E2E5C2E2E5C4D6964646C65776172655F
:1053E000735C6C7769705C7372635C636F72655C2D
:1053F000697076345C6574686172702E63000000B9
:1054000074797065206F766572666C6F7700000046
:10541000417373657274696F6E2022257322206652
:1054200061696C6564206174206C696E6520256417
:1054300020696E2025730A007CF101206172705F83
:105440007461626C655B695D2E7374617465203D87
:105450003D2050454E44494E47206F7220535441E1
:10546000424C45007120213D204E554C4C0000001F
:10547000380200206E6F207061636B657420717557
:105480006575657320616C6C6F7765642100000041
:105490002DE9FC5F06460F4690469946DDE90CABC8
:1054A0000020019000BF46B900BF31A340F25F4227
:1054B0003BA13FA0FAF7A2FF00BF00BF4FF420724C
:1054C0001C210E2006F0BEFA05461DB94FF0FF3034
:1054D000BDE8FC9F00BF68891C2808DA00BF24A330
:1054E00040F26A423CA132A0FAF788FF00BF00BF39
:1054F0006C680F9805F0EBF9E08000BF96F830007B
:10550000062808D000BF1AA340F271423F4928A0E4
:10551000FAF774FF00BF00BFD9F80000A060B9F827
:105520000400A081DBF80000C4F81200BBF80400FE
:10553000E082DAF80000C4F80E000E980068A0615E
:105540004FF48070208008206080062020710420A5
:10555000607140F6060043463A46294600903046C0
:1055600000F06AFA284606F043FE00250198AFE7EE
:105570002E2E5C2E2E5C4D6964646C6577617265BD
:10558000735C6C7769705C7372635C636F72655C8B
:10559000697076345C6574686172702E6300000017
:1055A0006E6574696620213D204E554C4C0000000C
:1055B000417373657274696F6E20222573222066B1
:1055C00061696C6564206174206C696E6520256476
:1055D00020696E2025730A00636865636B20746818
:1055E00061742066697273742070627566206361ED
:1055F0006E20686F6C6420737472756374206574B8
:10560000686172705F68647200000000E83E010823
:1056100070B504460D46034A2946204600F004F8BA
:1056200070BD0000403C01087FB504460D4616469B
:105630000121074A201D04F12A038DE8250003916A
:10564000324619462046FFF723FF04B070BD000024
:10565000463C010870B5002464E004EB4400334983
:1056600001EBC000057D002D5BD004EB440001EB95
:10567000C000408A401C04EB44012C4A02EBC101EB
:10568000488204EB4400114601EBC000408AB0F5AB
:10569000967F0DDA04EB440001EBC000007D012889
:1056A0000AD104EB440001EBC000408A052803DB6B
:1056B0002046FFF74FFB34E004EB44001B4901EBAD
:1056C000C000007D032807D1042004EB4401174AE1
:1056D00002EBC101087524E004EB4400134901EB1F
:1056E000C000007D042807D1022004EB44010F4ACA
:1056F00002EBC101087514E004EB44000B4901EB17
:10570000C000007D01280CD104EB44020B4603EBE2
:10571000C202111D04EB440203EBC2029068FFF7C2
:1057200077FF641C0A2C98DB70BD00007CF101201F
:105730002DE9F84305460E461746984600BF95F8F2
:105740003000062808D000BF2EA340F2A91239A1CC
:1057500041A0FAF753FE00BF00BF5EB1306848B108
:105760002946306800F06EFC20B9307800F0F00077
:10577000E02803D16FF00F00BDE8F8832A464146C8
:105780003046FFF76BF90446002C01DA60B2F3E70C
:10579000022004EB44013A4A02EBC101087504EB14
:1057A0004400114601EBC000856004EB440001EBAE
:1057B000C0003968C160B9880182002004EB44014F
:1057C00002EBC101488204EB4400114651F830005D
:1057D000B0B104EB440051F83090002004EB4401D8
:1057E00042F831004FF400603B4605F12A02494679
:1057F0000090284600F020F9484606F0F9FC00BF6A
:105800000020B9E72E2E5C2E2E5C4D6964646C6519
:1058100077617265735C6C7769705C7372635C63EB
:105820006F72655C697076345C6574686172702E45
:10583000630000006E657469662D3E68776164647C
:10584000725F6C656E203D3D204554485F4857416E
:105850004444525F4C454E00417373657274696FE6
:105860006E2022257322206661696C656420617454
:10587000206C696E6520256420696E2025730A00FE
:105880007CF10120014600200A6802F0004252B972
:105890000A6802F4004232B90A6802F4807212B156
:1058A0000A68C2F30D4070471CB51A4800788DF89D
:1058B0000000184840788DF80100164880788DF86F
:1058C00002001448C0788DF80300124800798DF862
:1058D0000400104840798DF805000F480F49086012
:1058E0000120486081030D488160C910C16000211A
:1058F0000182C0F814D0012181610021C1614FF4FF
:1059000000010162FBF76CFC08B900201CBD0120FE
:10591000FCE700006CF2012000800240B803002088
:105920002DE9F04104460E464FF00E0860890E281E
:1059300000DC4FE0E07B18B996F83400401CE073BF
:105940006568AF89287800F00100B0B12878012897
:1059500009D1687888B9A8785E280ED1607B40F0BC
:105960001000607309E006221D492846FAF7ECFE94
:1059700018B9607B40F008006073082F03D0B7F5BA
:10598000C16F22D110E096F8310000F0080000B994
:1059900020E04146204606F015FE00B11AE03146EF
:1059A000204600F0C1FC11E096F8310000F008003C
:1059B00000B90FE04146204606F004FE00B109E0C0
:1059C00031462046FFF7E6F900E003E000BF002083
:1059D000BDE8F081204606F00BFC0020F8E700004F
:1059E000403C010810B58021002005F033FD0E4930
:1059F00008608021002005F02DFD0C49086041F26F
:105A0000D071002005F026FD0949086041F2D071EF
:105A1000002005F01FFD0749086000BF00BF00BF60
:105A200000BF002010BD00001C000020200000204E
:105A300024000020280000202DE9F04705460E46EE
:105A400017469846DDF82090484604F040FF82460D
:105A50000E21304605F07CFF00B122E07468A4F806
:105A60000CA0D8F800002060B8F80400A0803868C6
:105A7000C4F80600B888608100BF95F83000062899
:105A800008D000BF08A34FF4997212A11EA0FAF724
:105A9000B5FC00BF00BF31462846AA699047BDE863
:105AA000F0876FF00100FAE72E2E5C2E2E5C4D6918
:105AB00064646C6577617265735C6C7769705C7344
:105AC00072635C6E657469665C65746865726E6548
:105AD000742E63006E657469662D3E687761646438
